:020000040800F2
:10000000602D0820AD0200086B2500087121000852
:1000100069250008730900083D360008000000004B
:10002000000000000000000000000000D1010008F6
:10003000750900080000000025020008C528000816
:10004000C7020008C7020008C7020008C70200086C
:10005000C7020008C7020008C7020008C70200085C
:10006000C7020008C7020008C7020008C70200084C
:10007000C7020008C7020008C7020008C70200083C
:10008000C7020008C7020008C7020008C70200082C
:10009000C7020008C7020008C7020008C70200081C
:1000A000C7020008C7020008C7020008C70200080C
:1000B000C7020008C7020008C70200089121000813
:1000C000C7020008C7020008C7020008C7020008EC
:1000D000C7020008C7020008C7020008C7020008DC
:1000E000C7020008C7020008C7020008C7020008CC
:1000F000C7020008C7020008C7020008000000008D
:10010000C7020008C7020008C7020008C7020008AB
:10011000C7020008C7020008C7020008C70200089B
:10012000C7020008C7020008C7020008C70200088B
:10013000C7020008C7020008C7020008C70200087B
:10014000C7020008C7020008C7020008C70200086B
:10015000C7020008C7020008C9230008C702000838
:10016000C7020008C7020008C7020008C70200084B
:10017000C7020008C70200080000000000000000DD
:10018000C7020008C7020008C7020008C70200082B
:10019000C7020008C70200080000000000000000BD
:1001A0000000000000000000C7020008C7020008AD
:1001B000C7020008C7020008C7020008DFF80CD019
:1001C00000F062FB00480047B94C0008602D082091
:1001D0002B4B1968086800F058B880F30988BFF302
:1001E0006F8F4FF0000080F311887047000000000F
:1001F00006480068006880F3088862B661B6BFF3FD
:100200004F8FBFF36F8F00DF00BF00BF08ED00E02E
:10021000DFF80C00016841F470010160704700BF15
:1002200088ED00E0EFF30980BFF36F8F144B1A687D
:100230001EF0100F08BF20ED108A20E9F04F10606B
:1002400008B44FF0500080F31188BFF34F8FBFF315
:100250006F8F05F0F1FC4FF0000080F3118808BCAF
:100260001968086800F016B81EF0100F08BF00F0FB
:1002700016B880F30988BFF36F8F704700BF00BFC7
:1002800040000020EFF30580704730C8B0E8C04F51
:10029000FFF7A3BF30C8B0E8C04FFFF7E5BFB0EC31
:1002A000088AB0EC08CAFFF7E4BF000006488047A0
:1002B00006480047FEE7FEE7FEE7FEE7FEE7FEE74B
:1002C000FEE7FEE7FEE7FEE789290008BD0100081A
:1002D0002DE9F05F0546002092469B46884606467B
:1002E000814640241BE0284641464746224600F00E
:1002F0008AF853465A46C01A914110D311461846FF
:10030000224600F071F82D1A67EB01084F4622468D
:100310000120002100F068F817EB00094E41201E73
:10032000A4F10104DFDC484631462A46434600F08A
:1003300000B830BCBDE8C09F40EA01039B0703D072
:1003400009E008C9121F08C0042AFAD203E011F814
:10035000013B00F8013B521EF9D27047D2B201E0D6
:1003600000F8012B491EFBD270470022F6E710B5BA
:1003700013460A4604461946FFF7F0FF204610BD13
:1003800010B54843044604F047FD002805D000217D
:10039000002C02D0641E0155FAE710BD0EB540F2E4
:1003A000334102910021CDE900110A460B4600F0CD
:1003B00049F803B000BDC1F30A5210B5C1F31301EF
:1003C00040F2FF3341F480119A4201DA002010BD5F
:1003D00040F233439A42A2F2334203DC524200F02D
:1003E00012F810BD904010BD202A04DB203A00FA1C
:1003F00002F1002070479140C2F1200320FA03F37C
:10040000194390407047202A04DB203A21FA02F079
:100410000021704721FA02F3D040C2F1200291403E
:1004200008431946704710B5141E73F1000408DA2A
:10043000401C41F1000192185B411A4301D120F0A8
:10044000010010BD2DE9F04D92469B4611B1B1FA65
:1004500081F202E0B0FA80F220329046FFF7C4FF4A
:1004600004460F4640EA0A0041EA0B0153465A4649
:10047000084313D0114653EA010019D0C8F14002D5
:100480005046FFF7C0FF05460E46504659464246C5
:10049000FFF7AAFF084305D0012004E020463946B3
:1004A000BDE8F08D0020054346EAE0762C43374353
:1004B0000A986305E40AA0EB08000022FD0A44EA5A
:1004C00047540A3002D500200146E9E7010510191A
:1004D0006941DDE9084500196941BDE8F04DA2E731
:1004E0002DE9FE4F804681EA0300C00F0C460090C4
:1004F00021F0004123F00045B8EB0200A94105D2EC
:100500004046214690461C460B46024623F00040DA
:10051000104347D0270DC7F30A00C3F30A510290D6
:10052000401A019040286BDAC3F3130040F4801B9B
:100530000098924620B10023D2EB030A63EB0B0B29
:1005400001985946C0F140025046FFF74DFF06465C
:100550000D4650465946019A00F0A8F910EB0800E4
:100560006141002487EA115284EAE7731A4340D0BC
:10057000009A62B3019A012A4FEA075215DC001B68
:1005800061EB02014FF0004202EA0752CDE900425E
:10059000001C41F5801132462B46FFF753FF03B094
:1005A00000F045B840462146F9E7001B61EB020127
:1005B000001C41F5801300185B412018A2F50017BC
:1005C00047EB030140EAD570B6196D4111E06D08A3
:1005D0004FEA360645EAC0754FEA0752001B61EB49
:1005E0000201001C41F5801149084FEA3000001952
:1005F000514132462B4603B000F01CB8FFF713BF41
:100600000098012240000023D0EB020263EBE0736C
:10061000009821464FEAE074B8EB000061EB04015A
:10062000E9E783F000435BE781F0004158E730BC25
:10063000BDE8C08F30BCBDE8C04FFFF7DFBF2DE97C
:10064000FE4F81EA030404F0004421F000410094CD
:100650004FF0000B23F0004350EA01045ED052EA51
:1006600003045BD0C3F30A54C1F30A552C44A4F22B
:10067000F3340194A0FB0254C1F3130141F480113F
:10068000C3F3130343F4801301FB024400FB034E46
:10069000840A970A44EA815447EA8357A4FB07680F
:1006A00002958D0A05FB07854FEA932C04FB0C5439
:1006B0002705029D4FEA065847EA1637B5EB0805AD
:1006C0006EEB070C870E920E47EA811742EA8312FF
:1006D000A7FB0201B6EB0B0164EB00042B0D43EA10
:1006E0000C335E1844EB1C50DA465146E7FB02011E
:1006F000C5F313044FEA0B3343EA14534FEA0432B1
:10070000019C43EA0603A4F10C040294009CCDE989
:1007100000B4FFF797FE03B000F003B800200146D5
:10072000F9E730BCBDE8C08F2DE9F04D81EA030444
:1007300004F0004B21F0004514464FF0000A23F06E
:10074000004150EA050220D054EA01021DD0C5F351
:100750000A570246C5F31303C1F31300C1F30A5647
:1007600040F4801543F48013A7EB0608101BD6460F
:1007700008F2FD3873EB050002D308F1010801E02F
:1007800092185B41B8F1000F03DA00200146BDE882
:10079000F08D00204FF48011064684460EE0171BB2
:1007A00073EB050705D3121B63EB050306434CEA05
:1007B000010C49084FEA300092185B4150EA0107EA
:1007C000EDD152EA030012D082EA040083EA050167
:1007D000084305D0101BAB4106D20122002306E0DE
:1007E00000224FF0004302E06FF0010253101AEBB9
:1007F00006004CEB085110EB0A0041EB0B01BDE881
:10080000F04DFFF710BE70B521F0004303430CD04C
:10081000C1F30A550024D5EB040564EB0403D61795
:10082000AD1AB34102DB0020014670BD201841EB38
:10083000025170BD0EB5C10F80EAE0700844CA07CE
:10084000002140F233438DE80E000A460B46FFF7C5
:10085000F9FD03B000BD000030B5041E71F10004C5
:1008600004DB4FF00044404264EB0101141E73F1BD
:10087000000405DB1C464FF00043524263EB0403C7
:10088000994208BF904230BD064C074D06E0E06833
:1008900040F0010394E8070098471034AC42F6D3C7
:1008A000FFF790FC186C0008386C0008202A06DB63
:1008B000CB17203A41FA02F043EAE07306E041FA2E
:1008C00002F3D040C2F1200291400843194670471C
:1008D0002DE9F04D00231A461B1A8A4103DB002044
:1008E0000146BDE8F08DC1F30A52C1F3130141F492
:1008F00080154FF0000BD10702D100186D41521E38
:100900000027044640F2FF11384601EB620A3E46DA
:100910008046024600204FF48011FFF774FDC21993
:100920007141BB1846EB0100B4EB030C75EB000CF6
:1009300004D3E41A65EB000517460E46241908F1A6
:1009400001006D4180463428E3DDF91946EB0600CD
:10095000091BA84103D24FF0FF32134601E00022E9
:1009600013461BEB070046EB0A51BDE8F04DFFF7BD
:100970005ABDFEE7704710B590F8251000240229F3
:1009800003D00421C16301242BE001680A6822F02E
:100990000E020A6001680A6822F001020A60816C96
:1009A0000A6822F480720A6090F84410036C01F027
:1009B0001C01012202FA01F15960D0E913134B60C6
:1009C000416D31B10B6823F480730B60D0E91613CD
:1009D0004B6080F82520002180F82410816B01B144
:1009E0008847204610BD00002DE9F84FDFF888B198
:1009F00000234FF0010C4FF0030A4FF00F090BF1E9
:100A0000040EB1E00CFA03F632406FD04C68022CB1
:100A100001D0122C11D1DC0800EB84073C6A5D0781
:100A2000ED0E09FA05F824EA0804D1F8108008FA56
:100A300005F848EA0408C7F8208007685D0091F8C7
:100A400004800AFA05F408F00308A74308FA05F839
:100A500048EA0708C0F800804F68012F05D0022F30
:100A600003D0112F01D0122F10D1D0F80880CF68F9
:100A700028EA0408AF4047EA080787604768B74399
:100A80000E79C6F300169E403E434660C668A643F4
:100A90008C68AC403443C4604C68E40063D5374C88
:100AA000256E45F001052566246E23F0030504F04C
:100AB00001040094324C2F19BD689C07260F09FAD7
:100AC00006F4A543B0F1904F04D02E4CA04203D1C0
:100AD000012421E000241FE02B4CA04201D102247C
:100AE0001AE02A4CA04202D1032415E03BE0284C36
:100AF000A04201D104240FE0264CA04201D10524DC
:100B00000AE0254CA04201D1062405E0234CA04276
:100B100001D1072400E00824B4402C43BC60DBF87A
:100B200000405D464E689443F60300D514432C60A4
:100B3000DEF8004075464E689443B60300D5144372
:100B40002C600D4D08352C684E689443F60200D594
:100B500014432C60084D0C352C684E689443B60243
:100B600000D514432C605B1C0A6832FA03F47FF44E
:100B700049AF00F015B80000000401400010024029
:100B8000000001400004004800080048000C004834
:100B9000001000480014004800180048001C0048DD
:100BA00018BCBDE8E08F0AB181617047816270476F
:100BB00001480068704700001400002090F84120B0
:100BC000202A24D190F84020012A20D0012280F848
:100BD0004020242280F841200268136823F001039A
:100BE00013600268136823F480531360026813686B
:100BF0000B43136001680A6842F001020A60202179
:100C000080F84110002180F840100846704702200B
:100C1000704790F84120202A22D190F84020012AE4
:100C20001ED0012280F84020242280F84120026852
:100C3000136823F0010313600268136823F47063E0
:100C400043EA0121116001680A6842F001020A606A
:100C5000202180F84110002180F84010084670479C
:100C600002207047026891691268436B002B00D024
:100C70001847704770B5040004D094F8410000256F
:100C800028B109E04FF400706064012070BD84F861
:100C90004050204600F0FCF8242084F841002068F1
:100CA000016821F0010101606068216820F0706036
:100CB00008612068816821F400418160E0680128B2
:100CC000A06807D040F4044021688860E0680228EA
:100CD00003D006E040F40040F6E721684FF40060DE
:100CE000486020684168114A114341602068C1682A
:100CF00021F40041C160D4E904010843A16940EA3C
:100D000001202168C860D4E9070108432168086010
:100D10002068016841F0010101606564202084F8C9
:100D20004100256384F84250002070BD008000021D
:100D30002DE9FF4F83B00446DDE9108790F84100AC
:100D4000DDF848909A469346202870D15FEA080063
:100D500014D09FB194F84000012868D0012084F895
:100D60004000FFF725FF0646012200901923D1031A
:100D7000204601F0AFFA00286DD103E04FF4007077
:100D8000606468E0212084F84100402084F842003B
:100D900000256564C4F8248067856563CDE9009605
:100DA00053465A462046049901F04CFA10B184F893
:100DB000405050E0608DFF274FF080784FF0007A70
:100DC000FF2804D927853A464346009505E0608D03
:100DD0002085009594F8282053462046049901F078
:100DE00063FA32464946204601F0C6FA98BB606A6B
:100DF000411C6162216800788862608D401E6085B8
:100E0000208D401E80B22085618DD9B1D0B94B466E
:100E1000002280212046009601F05CFAD8B9608D4E
:100E2000FF2805D927853A464346009506E026E087
:100E3000608D2085009594F828205346204604991B
:100E400001F032FA608D0028CBD132464946204667
:100E500001F06CFA18B1012007B000F015B8216854
:100E60002020C86121684A68064B1A404A6084F80D
:100E7000410084F8425084F840500020ECE7022002
:100E8000EAE7000000E800FE30BCBDE8C08F0000CB
:100E900000B50068124987B088421FD14FF4C040A6
:100EA0000090122001900120029003200390042062
:100EB000049069460B48FFF797FD0B48816D41F49C
:100EC00000118165806D002200F40010059005215D
:100ED0001F2000F07FF81F2000F070F807B000BD61
:100EE0000054004000180048001002400248016809
:100EF000491C0160704700001400002010B5032059
:100F000000F088F80F2000F005F800F017F8002036
:100F100010BD000010B5044607484FF47A71006810
:100F2000B0FBF1F000F0C0FE00222146501E00F0A0
:100F300051F8002010BD0000180000201E4808B520
:100F4000016E41F001010166016E01F001010091A5
:100F5000816D41F080518165806D00F0805000907E
:100F6000032000F057F8002211466FF00B0000F04C
:100F700031F8002211466FF00A0000F02BF8002231
:100F800011466FF0090000F025F800221146501FAD
:100F900000F020F800221146101F00F01BF800227C
:100FA0000F21901E00F016F800220F21BDE8084026
:100FB000501E00F00FB800000010024000F01F02A9
:100FC000012191404009800000F1E020C0F80011AB
:100FD00070470000F0B40E4B1B680C46C3F30223AD
:100FE000C3F10705042D00D90425191D072901D2D5
:100FF000002300E0DB1E012606FA05F1491E214010
:1010000099409E40761E16403143F0BC01F0AEBAC6
:101010000CED00E0064900F0070208684FF6FF03F8
:10102000184040EA0220034A10430860704700005D
:101030000CED00E00000FA052A492B4B0A682B4909
:1010400040B1B0F5007F086829D020F4C06040F4BA
:1010500080602CE00868C0F34120022804D051F8D9
:10106000800F20F4807022E0D1F8800020F480709E
:10107000C1F88000086820F4C06040F40070086087
:10108000B2FBF3F03222504300E0401E10B14A6937
:101090005205FAD4486940050AD503207047C0F3C9
:1010A0004120022806D051F8800F40F4807008607B
:1010B00000207047D1F8800040F48070C1F88000B3
:1010C000086820F4C06040F400700860B2FBF3F0E0
:1010D0003222504300E0401E0028DBD04A6952050E
:1010E000F9D4D7E71800002040420F0000700040FC
:1010F0000248416841F4007141607047007000404F
:1011000008480168C1F34121022906D0D0F88000C7
:10111000C00505D54FF4007070474FF480607047EC
:1011200000207047007000402DE9F84F044600276A
:1011300000883E46010504F12008FE4D1ED5E06EF4
:1011400040280AD003DC68B1202804D10FE06028D1
:1011500021D080281FD001270FE0E86840F48030BC
:10116000E86018E00021201D01F010FA03E00021E2
:10117000404601F09FFA07000DD03E462088C0048B
:101180002BD5206FB0F5007F16D00DDCC8B1B0F5BF
:10119000807F0FD11AE0D5F89C00E16E20F0E000CE
:1011A0000843C5F89C00E9E7B0F5407F13D0B0F5DF
:1011B000806F10D001270FE0E86840F48030E860CD
:1011C00009E00021201D01F0E1F903E00021404683
:1011D00001F070FA0746F7B13E46206880033AD521
:1011E000A86D4FF00008C00009D4A86D40F08050F1
:1011F000A865A86D4FF0010800F080500090DFF85E
:1012000038A3DAF8001041F48071CAF80010FFF733
:10121000CFFC814610E0D5F89C00216F20F4E060FF
:101220000843C5F89C00D8E7FFF7C2FCA0EB090013
:10123000022801D9032705E0DAF80000C005F3D53C
:10124000002F7CD04FEA0706B8F1000F03D0A86D3D
:1012500020F08050A8652078C00707D0D5F8880016
:10126000E16B20F003000843C5F888002078800770
:1012700007D5D5F88800216C20F00C000843C5F88C
:1012800088002078400707D5D5F88800616C20F0E9
:1012900030000843C5F888002078000707D5D5F846
:1012A0008800A16C20F0C0000843C5F888002078B1
:1012B000C00607D5D5F88800E16C20F440700843DB
:1012C000C5F888002078800607D5D5F88800216DFC
:1012D00020F440600843C5F888002088800507D5C1
:1012E000D5F88800616E20F440200843C5F88800D6
:1012F0002088400507D5D5F88800A16E20F440105D
:101300000843C5F888002078400607D5D5F888003E
:10131000616D20F440500843C5F88800207800062D
:1013200007D5D5F88800A16D20F440400843C5F8E2
:1013300088002088C00509D5D5F8880000E027E09E
:10134000E16D20F440300843C5F888002068C002F1
:1013500007D5D5F89C00216E20F003000843C5F89E
:101360009C0020884FF0006780044FF0806850D5C3
:10137000D5F88800616F20F040600843C5F8880008
:10138000606FB8423DD1E86840F48010E86040E00A
:10139000D5F8900010F4407015D0D4F89010814228
:1013A00011D0D5F89000D5F8901020F4407041F499
:1013B0008031C5F89010D5F8901021F48031C5F82F
:1013C0009010C5F89000C00711D0FFF7F1FB074659
:1013D00041F2883907E000BFFFF7EAFBC11B49452E
:1013E00001D9032630E7D5F890008007F4D5D5F869
:1013F0009000D4F8901020F440700843C5F8900095
:1014000022E7404505D10121201D01F0BFF800B1C0
:101410000646206800032DD5A06F4FF48041884216
:10142000D5F89C0004D140F48040C5F89C000BE046
:1014300020F48040C5F89C00D5F88800A26F20F009
:1014400040601043C5F88800A06FB84203D1E86837
:1014500040F4801004E0884204D1E86840F4803011
:10146000E86007E0404505D10121201D01F08EF81C
:1014700000B106462068400317D5D5F88800E16F13
:1014800020F040600843C5F88800E06FB84204D1FE
:10149000E86840F48010E86007E0404505D101218C
:1014A000201D01F073F800B106462088400413D5D2
:1014B000D5F88800D4F8801020F040500843C5F8D3
:1014C0008800D4F88000B0F1805F05D10221201D92
:1014D00001F05CF800B106462068C00308D5D5F8D5
:1014E0009C00D4F8841020F004000843C5F89C0048
:1014F0002068800208D5D5F89C00D4F8881020F028
:1015000018000843C5F89C002068C00110D5D5F824
:101510009C0054F88C1F20F440100843C5F89C0030
:101520002068B0F5001F03D1E86840F48010E8603F
:10153000304603E0001002400070004000F000B8A8
:1015400018BCBDE8E08F00002DE9F0470E4605000D
:101550004FF000077ED0DFF85481D8F8000000F08B
:101560000F00B0420CD2D8F8001021F00F01314327
:10157000C8F80010D8F8000000F00F00B04271D198
:1015800028784B4CC0074BD06868DFF828910328B7
:101590001ED002282ED0002820682ED0400500281A
:1015A00060DA00F0B3F8484506D9A06820F0F000F2
:1015B00040F08000A0608027A068696820F00300E8
:1015C0000843A060FFF7F4FA814641F2883A20E030
:1015D0002068800146D501F001F94845ECD928780A
:1015E000800702D5A8680028DFD0A06810F0F00FAF
:1015F000DBD0E1E720688003D1E78007CFE700BFB9
:10160000FFF7D6FAA0EB0901514502D90320BDE846
:10161000F087A068696800F00C00B0EB810FEFD193
:101620002878800705D5A068A96820F0F000084355
:1016300004E0802F03D1A06820F0F000A060D8F86B
:101640000010404601F00F01B1420DD9016821F0B0
:101650000F0100E006E031430160006800F00F0078
:10166000B04201D00120D2E72878400705D5A06814
:10167000E96820F4E0600843A0602878000706D5F8
:10168000A068296920F4605040EAC100A06000F021
:101690003DF8A168084AC1F30311515CC8400749ED
:1016A00008600F20FFF736FC0020B0E70020024062
:1016B0000010024000B4C404246B0008180000208D
:1016C00001480068704700001800002004480549E0
:1016D00000688968044AC1F30221515CC840704720
:1016E0001800002000100240646B000804480549FF
:1016F00000688968044AC1F3C221515CC840704740
:101700001800002000100240646B000830B52D491D
:10171000002318468A682C4C12F00C0F4FEA64051F
:1017200014D08A68C2F38102032A04D1CA6802F085
:101730000302012A0AD08A68C2F38102012A19D061
:101740008A68C2F38102022A16D016E00A681207DC
:1017500004D4D1F89420C2F3032202E00A68C2F351
:1017600003121A4B53F822308A6812F00C0F04D17E
:10177000184602E0204600E028468A68C2F381024B
:10178000032A1DD1C868CA6800F00300C2F303121F
:10179000521C022804D0032805D0B3FBF2F004E069
:1017A000B4FBF2F001E0B5FBF2F0CA68C968C2F31D
:1017B00006225043C1F34161491C4900B0FBF1F0DE
:1017C00030BD0000001002400024F400346B00081B
:1017D0002DE9F84304007DD02078FF4DC0065DD58B
:1017E000A86810F00C0F0AD0A0690028286873D0F0
:1017F00040F001002860FFF7DBF9064655E0286855
:10180000800702D5A0690028E5D0216A2868000772
:1018100003D5286800F0F00004E0D5F89400F02229
:1018200002EA1010814216D9084601F011F800288A
:1018300050D1286840F0080028602868216A20F00C
:10184000F000084328606868E16920F47F4040EABE
:101850000120686015E0286840F0080028602868CA
:10186000216A20F0F000084328606868E16920F4EC
:101870007F4040EA01206860206A00F0E9FF00280C
:10188000D6D1FFF743FFA968D44AC1F30311515CD5
:10189000C840D34908600F20FFF73CFB2CE000BF95
:1018A000FFF786F9801B02287ED828688007F7D5C5
:1018B000286840F0080028602868216A20F0F000BD
:1018C000084328606868E16920F47F4040EA01200D
:1018D000686011E0B2E0FFE720F001002860FFF748
:1018E00067F9064605E000BFFFF762F9801B022892
:1018F000DAD828688007F7D42078C00748D0A868CD
:10190000C0F3810002281DD0A868C0F3810003281D
:1019100003D1E868C043800714D06068B0F5803F09
:1019200017D0B0F5A02F286817D020F48030286099
:10193000286820F4802028606068E0B1FFF738F95B
:10194000064614E02868800322D56068002875D018
:101950001EE0286840F48030EDE740F480202860E5
:10196000F7E700BFFFF724F9801B64289CD828689C
:101970008003F7D50CE0FFF71BF9064605E000BF32
:10198000FFF716F9801B64288ED828688003F7D4E7
:101990002078800742D5A868C0F38100012816D0BE
:1019A000A868C0F3810000E0CEE0032804D1E86815
:1019B00000F0030002280AD0E068002828681DD043
:1019C00040F480702860FFF7F3F806460BE02868C3
:1019D00040050BD5E0680028B9D007E0FFF7E8F82C
:1019E000801B022884D828684005F7D56868217CC8
:1019F00020F0FE4040EA016068600FE020F4807053
:101A00002860FFF7D5F8064605E000BFFFF7D0F8DD
:101A1000801B0228AAD828684005F7D42078000740
:101A200029D560690028D5F8940013D040F0010052
:101A3000C5F89400FFF7BCF8064606E023E100BFB6
:101A4000FFF7B6F8801B02287ED8D5F894008007EF
:101A5000F6D510E020F00100C5F89400FFF7A8F8D3
:101A6000064604E0FFF7A4F8801B02286CD8D5F8DE
:101A700094008007F6D42078400761D5A86D002631
:101A8000C00008D4A86D40F08050A865A86D01265C
:101A900000F08050009053480168C90511D40168D6
:101AA000804641F480710160FFF782F8074604E048
:101AB000FFF77EF8C01B022846D8D8F80000C00502
:101AC000F6D5A068012815D00528D5F8900016D0C5
:101AD00020F00100C5F89000D5F8900020F0040037
:101AE000C5F89000A06841F28838B8B1FFF760F8F7
:101AF00007460EE0D5F8900040F00100F0E740F016
:101B00000400C5F89000F5E7FFF752F8C11B414506
:101B10001AD8D5F890008007F6D50CE0FFF748F802
:101B2000074604E0FFF744F8C11B41450CD8D5F83F
:101B300090008007F6D41EB1A86D20F08050A865F3
:101B40002078800629D500E084E0606A0028D5F876
:101B5000980011D040F00100C5F89800FFF728F870
:101B6000064604E0FFF724F8801B022872D8D5F857
:101B700098008007F6D510E020F00100C5F8980025
:101B8000FFF716F8064604E0FFF712F8801B02285C
:101B900071D8D5F898008007F6D4A06AF0B3A96888
:101BA000C1F3810103296FD00228286820F08070DA
:101BB00028601BD02868000106D42868800003D460
:101BC000E86820F00300E860E86807490840E8603A
:101BD000FEF7EEFF044651E000100240246B0008BF
:101BE0001800002000700040FFFFEEFEFEF7E0FF4F
:101BF000064604E0FEF7DCFF801B02283BD828687D
:101C00008001F7D4206B54F82C1F000110380843D2
:101C1000218A1E4A490802EB415100E031E0A268E6
:101C200041EA02210843217D4FF07E42490802EB40
:101C300041610843217B40EAC160E860286840F0C8
:101C400080702860E86840F08070E860FEF7B0FFC0
:101C5000044606E00FE000BFFEF7AAFF001B0228C3
:101C600009D828688001F7D50BE000BFFEF7A0FF78
:101C7000001B022802D90320BDE8F88328688001F0
:101C8000F4D40020F8E7FFE70120F5E70000E0FFCB
:101C90004FF0E0210428086903D020F00400086117
:101CA000704740F00400FAE710B5401EB0F1807FA5
:101CB00001D3012010BD4FF0E02460610F216017B7
:101CC00000F054FC0020A06107202061002010BD1E
:101CD000704770B5044690F87C0001281DD00120A3
:101CE00084F87C00242084F87D0020680568026860
:101CF00022F0010202602068826822F060620A43DA
:101D00008260204600F062FE20680560202084F892
:101D10007D00002084F87C0070BD022070BD70B58D
:101D2000044690F87C0001281DD0012084F87C0036
:101D3000242084F87D0020680568026822F00102F2
:101D400002602068826822F060420A438260204676
:101D500000F03CFE20680560202084F87D00002013
:101D600084F87C0070BD022070BD704770477047DA
:101D70002DE9F04103680446D8691A68996810F0A3
:101D80000F0F4FF0000569D05E4E02F490770E40C1
:101D900037437DD0C70709D0D70507D501271F6274
:101DA000D4F8803043F00103C4F8803083070AD5AB
:101DB000CB0708D0276802233B62D4F8803043F079
:101DC0000403C4F8803043070AD5CB0708D027683E
:101DD00004233B62D4F8803043F00203C4F880301F
:101DE00003070CD502F02003334308D026680823EC
:101DF0003362D4F8803043F00803C4F88030D4F85C
:101E00008030002B3CD0800609D502F0200001F084
:101E10008051084303D0E16E09B120468847D4F8C9
:101E20008000000703D42068806840062AD5204639
:101E300000F09EFE2068816849061ED5816821F069
:101E400040018160A06FC0B12F498163A06FFEF790
:101E500092FD002814D0A06F816B0AE0860617D58A
:101E600002F0200601F080573E4311D0E16E24E0DD
:101E70002046BDE8F04108470AE02046FFF777FF1B
:101E8000BDE8F0812046FFF772FFC4F88050F7E705
:101E9000C60209D54E0207D54FF4801018622046BD
:101EA000BDE8F041FFF762BF060609D502F08006E3
:101EB00001F400010E4303D0216F0029D8D1DFE7E0
:101EC00041060DD551060BD51968204621F0400179
:101ED0001960202184F87D10256700F048F9CFE7CC
:101EE000010206D5510004D52046BDE8F041FFF7B8
:101EF0003CBFC001C4D5002AC2DA2046BDE8F0418B
:101F0000FFF7E6BE010000105B2B000810B50400CF
:101F100003D094F87D0010B107E0012010BD00202F
:101F200084F87C00204600F027F8242084F87D0007
:101F30002068016821F001010160204600F02AFFBD
:101F40000128EBD0A06A10B1204600F073FD206894
:101F5000416821F4904141602068816821F02A01A4
:101F600081602068016841F0010101602046BDE800
:101F7000104000F0C3BD000000B500680E4987B0F6
:101F8000884217D10D48C16D41F00101C165C06D96
:101F9000694600F0010005904FF4C07000900220E7
:101FA0000190002002900320039008200490044830
:101FB000FEF71AFD07B000BD00800040001002408F
:101FC0000018004870B590F87E30202B6BD1B9B165
:101FD000B2B190F87C30012B65D0012380F87C30C1
:101FE0008165A0F85C20A0F85E200021C1668368AE
:101FF0004FF48056FF24B34207D1036913B10CE0BC
:10200000012070BD40F2FF130DE07F251BB1B3F13D
:10201000805F05D009E00369B3B9A0F8604004E02F
:1020200003698BB13F23A0F86030C0F880102223F1
:1020300080F87E3003689C6844F001049C60436E25
:10204000B3F1005F03D01CE0A0F86050EDE7B0F8FA
:102050006830934215D88268B24201D1026972B1E8
:10206000124AC26680F87C1001680A6842F48072E5
:102070000A600068816841F0805181600FE00C4A7D
:10208000EFE78268B24201D1026952B1094AC266E1
:1020900080F87C100068016841F4907101600020B4
:1020A00070BD054AF3E7022070BD0000F12C000866
:1020B000F12B0008952C0008952B000870472DE99E
:1020C000F843044690F87D001F4616460D4620282A
:1020D0004BD1C5B1BEB194F87C00012845D0012098
:1020E00004F87C0F4FF00008C4F8048021206070D1
:1020F000FEF75EFD24F8286C814624F8266C4FF428
:1021000080567C3C15E00120BDE8F8838021204604
:1021100001F0FDF9D8B9A068B04201D12069C0B181
:1021200015F8010B21680885B4F85600401EA4F884
:102130005600B4F856004B464FF0000200970028B6
:10214000E4D14FF04001204601F0E1F930B1032025
:10215000DAE735F8020BC0F30800E3E7202084F843
:102160007D0084F87C800020CEE70220CCE7704719
:1021700001A001F07DFAFEE7486172642066617596
:102180006C742068616E646C65720D0A000000005A
:102190000148FEF767BD00005003002001688A690E
:1021A000D243920701D400228A6200688169C94340
:1021B000C90703D0816941F00101816170470000C6
:1021C0002DE9F0410446006890460E468069C04300
:1021D000C00633D40025202720688069C0438006CC
:1021E00015D5701CF8D0FEF7E3FCA0EB0800B04258
:1021F00001D8002EF0D154F8440F40F0200044F8EC
:1022000004096770A57025700120BDE8F081216880
:102210001020C8612068C7612046FFF7BFFF54F84F
:10222000440B4168064A11404160206840F00400B8
:1022300044F820096777A5772577E5E70020E4E7EC
:1022400000E800FE2DE9F843044616461548984676
:10225000DDE90897DAB2C3020090204600F024F8C6
:102260003A464946204600F087F8B8B9F5B2B8F1C9
:10227000010F08D02168300A88623A464946204654
:1022800000F07AF850B9206885624B460022802120
:102290002046009700F01EF8002800D00120BDE87D
:1022A000F883000000200080F0B50568059C686890
:1022B0004FF48066064FC1F3090106EA545641EA1D
:1022C00002413E431943B043214308436860F0BDD7
:1022D000FF63FF032DE9F0411D4617460E460446F5
:1022E000DDF8188008E0681C06D0FEF761FCA0EB62
:1022F0000800A8420BD855B12068806936EA000072
:1023000012D00020B842EED00020BDE8F08154F891
:10231000440F40F0200044F80409202060700020A1
:10232000A07020700120F0E70120EBE770B51646A1
:102330000D4604460DE0324629462046FFF740FF91
:1023400008B1012070BDFEF733FC801BA84207D8FE
:1023500035B120688069C0438006ECD4002070BD90
:1023600054F8440F40F0200044F804092020607025
:102370000020A0702070E4E770B516460D460446B4
:102380000FE0324629462046FFF71AFF08B1012028
:1023900070BD681C05D0FEF70BFC801BA84207D857
:1023A00035B120688069C0438007EAD4002070BD41
:1023B00054F8440F40F0200044F8040920206070D5
:1023C0000020A0702070E2E72DE9F0472248C069A4
:1023D00040F2255108423AD02048FFF7C9FC0122BB
:1023E0001F491E48FFF7EEFD1D4C0027DFF87480E3
:1023F00025780A2D09D00D2D07D0DFF86C90082D17
:102400000BD025B366789EB119E018A001F030F921
:102410006770012188F8001019E0607808B1401E4B
:102420006070617813A009F8017001F021F90EE0E5
:1024300088F800704FF480710B48FDF796FF09F89B
:102440000650761C667029460BA001F011F9BDE814
:10245000F0470248FFF78CBC008000409C0300203E
:102460001000002004000020200400200D0A434D2D
:10247000443A20000820080025630000184810B5E1
:10248000164901601749416000210122C0E902128A
:10249000016141618161C1610162FEF7EBFB20B125
:1024A00040F22D11104801F0CBF800210C48FEF746
:1024B00085FB20B14FF49A710B4801F0C1F800215F
:1024C0000748FEF7A6FB002806D0BDE8104040F202
:1024D0003B11054801F0B4B810BD000000540040A5
:1024E000500300205919400058250008194810B51C
:1024F000174901604FF4E1314160002181600C22F5
:10250000C160C0E904128161016241628162416679
:10251000FFF7FCFC20B140F251110FA001F090F840
:1025200000210C48FFF7FBFB20B14FF4AB710AA070
:1025300001F086F800210748FFF7CBFB002806D002
:10254000BDE8104040F25B1103A001F079B810BD66
:10255000008000409C0300202E2E2F5372632F6DAD
:1025600061696E2E63000000FEE770470907090EDF
:10257000002806DA00F00F0000F1E02080F8141DBA
:10258000704700F1E02080F8001470472DE9F04119
:10259000434C05468846E06800268107286806D037
:1025A000E16801F0030181420FD170B11AE0012806
:1025B00004D0022805D0032807D108E02168890744
:1025C00001E021684905002907DB012664E0216854
:1025D000890302D421684903F5E7E16821F003018A
:1025E0000143E160206820F080602060FEF7E0FA9F
:1025F000074604E0FEF7DCFAC01B022843D8206837
:102600000001F7D46FF00F00B8F1000F1BD0B8F144
:10261000010F24D0297D4908420502EB4161AA68D7
:1026200041EA02216A6800EB0210014320691D4A59
:10263000104001432161206840F080602060FEF777
:10264000B7FA074621E0A9682A7B090241EAC2617C
:102650006A6800EB021001432069134AE8E7298AFF
:10266000124A490802EB4151AA6841EA02216A680C
:1026700000EB0210014320690D4AD9E7FEF798FAF2
:10268000C01B022801D9032606E020680001F5D509
:102690002069A969084320613046BDE8F081000047
:1026A000001002400F80FFF90F80FF070000E0FFDD
:1026B0000F809FFF2DE9F041434C05468846E068B6
:1026C00000268107286806D0E16801F003018142F5
:1026D0000FD170B11AE0012804D0022805D00328D8
:1026E00007D108E02168890701E021684905002930
:1026F00007DB012664E02168890302D421684903CD
:10270000F5E7E16821F003010143E160206820F072
:1027100080502060FEF74CFA074604E0FEF748FAC6
:10272000C01B022843D820688000F7D46FF00F0048
:10273000B8F1000F1BD0B8F1010F24D0297D490852
:10274000420502EB4161AA6841EA02216A6800EB96
:102750000210014360691D4A104001436161206815
:1027600040F080502060FEF723FA074621E0A96878
:102770002A7B090241EAC2616A6800EB0210014348
:102780006069134AE8E7298A124A490802EB415175
:10279000AA6841EA02216A6800EB021001436069FD
:1027A0000D4AD9E7FEF704FAC01B022801D9032617
:1027B00006E020688000F5D56069A969084360617A
:1027C0003046BDE8F0810000001002400F80FFF9A4
:1027D0000F80FF070000E0FF0F809FFF18480022D6
:1027E000C16801F0030101290DD10168090704D472
:1027F000D0F89410C1F3032102E00168C1F3031182
:10280000104A52F82120C16801F00303C168C1F3E6
:102810000311491C022B02D0032B03D101E00A4A09
:1028200000E00A4AB2FBF1F1C268C068C2F30622B6
:102830005143C0F34160401C4000B1FBF0F07047D1
:1028400000100240346B00080024F40000127A00EB
:10285000F8B51A4D06460024A86DC00002D5FEF753
:102860004FFC0DE0A86D40F08050A865A86D00F009
:1028700080500090FEF744FCA96D21F08051A965BD
:10288000B0F5007F03D0802E06D3022407E0802E0F
:1028900005D9A02EF9D801E0702E00D101240848F6
:1028A000016821F00F0121430160006800F00F0072
:1028B000A04201D00120F8BD0020F8BD0010024068
:1028C0000020024010B5FEF711FBBDE8104002F0F9
:1028D000E5BA000030B5BBB04FF40070FEF7ACFBBA
:1028E00018B1DC2124A000F0ABFE102025902BAA0B
:1028F00001210024602582E832000220CDE92F0169
:1029000031911921CDE932103490359025A8FEF788
:102910005FFF18B1EE2118A000F092FE0F20369054
:102920000320CDE937043994022136A83A94FEF702
:102930000BFE18B1FC2110A000F082FE1494684632
:1029400000951594FEF7F0FB20B14FF482710AA0B8
:1029500000F076FEFEF7B4FE4FF47A71B0FBF1F0B2
:10296000FFF7A2F90420FFF793F900220F21501E70
:10297000FEF730FB3BB030BD2E2E2F5372632F6D10
:1029800061696E2E630000000D48016841F470011A
:1029900001600C48016841F0010101600021816083
:1029A0000268094B1A4002608214C260026822F475
:1029B0008022026081610249C0038039086070474B
:1029C00088ED00E000100240FFFFF6EA3FB515A2D7
:1029D000D2E90012CDE9001214A2D2E90012CDE929
:1029E0000212416EC9B1026891689268C1F34261F6
:1029F000520F1DF80240E406250E02ACA25CB5FBA6
:102A0000F2F2A0F86A201DF80120615CD206120ED5
:102A1000B2FBF1F1A0F868103FBD0121A0F86A10E7
:102A2000F8E70000010101030701000008040204A7
:102A30000801000090F82810C90706D001684A680C
:102A4000C36A22F400321A434A6090F828108907BA
:102A500006D501684A68036B22F480321A434A6043
:102A600090F82810490706D501684A68436B22F49C
:102A700080221A434A6090F82810090706D5016899
:102A80004A68836B22F400421A434A6090F8281087
:102A9000C90606D501688A68C36B22F480521A43BE
:102AA0008A6090F82810890606D501688A68036C48
:102AB00022F400521A438A6090F82810490611D572
:102AC00001684A68436C22F480121A434A60416CE0
:102AD000B1F5801F06D101684A68836C22F4C002F8
:102AE0001A434A6090F82810090606D501684A681A
:102AF000C06C22F4002202434A607047F8B50026F9
:102B00000446C0F88060FEF753F805462068006868
:102B10006FF07E47000708D52B4600224FF40011C6
:102B20002046009700F0F3FC60B920680068400779
:102B30000AD52B4600224FF480012046009700F072
:102B4000E6FC08B10320F8BD202084F87D0084F85D
:102B50007E0084F87C600020F8BD10B5806A0021FA
:102B6000A0F85E10A0F85610FFF701F910BD0000A4
:102B700001680A6822F490720A6001688A68044B4E
:102B80001A408A60202180F87E100021C1667047BB
:102B9000FEFFFFEF10B5B0F8602090F87E300168BE
:102BA000222B04D0088B40F00800088310BD898CCC
:102BB000836D11401980816D891C8165B0F85E10AC
:102BC000491E0904090CA0F85E10EFD101680A68DB
:102BD00022F490720A6001688A6822F001028A6019
:102BE000202180F87E100021C166FFF767FA10BD32
:102BF00070B50446B0F8606090F87E00222805D0D9
:102C00002068018B41F00801018370BD94F8685081
:102C100023E02068808CA16D30400880A06D801C6E
:102C2000A065B4F85E00401EA4F85E00B4F85E0033
:102C300088B92068016821F480710160206881688A
:102C4000124A11408160202084F87E000020E06656
:102C50002046FFF733FA6D1EEDB2002DD9D1B4F83E
:102C60005E000028D1D0B4F85E00B4F86810884245
:102C7000CBD22068816821F0805181600448E066F1
:102C80002068016841F02001016070BDFEFFFFEF88
:102C9000952B000810B5B0F8602090F87E300168E0
:102CA000222B04D0088B40F00800088310BD898CCB
:102CB0001140826D531C83651170B0F85E10491E7F
:102CC0000904090CA0F85E10F0D101680A6822F42A
:102CD00090720A6001688A6822F001028A602021ED
:102CE00080F87E100021C166FFF7E8F910BD0000F2
:102CF00070B50446B0F8606090F87E00222805D0D8
:102D00002068018B41F00801018370BD94F8685080
:102D100022E02068818CA06D3140421CA2650170C8
:102D2000B4F85E00401EA4F85E00B4F85E0088B9F6
:102D30002068016821F48071016020688168134A6D
:102D400011408160202084F87E000020E06620464B
:102D5000FFF7B4F96D1EEDB2002DDAD1B4F85E00C4
:102D60000028D2D0B4F85E00B4F868108842CCD203
:102D70002068816821F0805181600548E066206804
:102D8000016841F02001016070BD0000FEFFFFEF0F
:102D9000952C00082DE9F05F0446016880682369DE
:102DA000E66918436369102533431843636E0027AF
:102DB0000343F54A0868F54E304018430860206820
:102DC0004168E36821F44051194341602168A069DA
:102DD000914201D0236A18438B68ED4E3340034380
:102DE0008B602068C16A636A21F00F011943C162D8
:102DF000E949E84B20688E1598420DD1D1F888102A
:102E000011F0030106D0012959D0022955D0032918
:102E100058D156E0012555E0E04B98420BD1D1F84E
:102E2000881011F00C0146D0042948D0082944D05C
:102E30000C2947D145E0DA4B98420BD1D1F88810E4
:102E400011F0300137D0102939D0202935D0302960
:102E500038D136E0D34B98420BD1D1F8881011F01D
:102E6000C00128D040292AD0802926D0C02929D1C4
:102E700027E0CD4B98420DD1D1F8881011F4407164
:102E800019D0B1421BD0B1F5007F16D0B1F5407F0B
:102E900018D116E0904215D1D1F8881011F4406194
:102EA00009D0B1F5806F0AD0B1F5006F05D0B1F54A
:102EB000406F07D105E0002504E0022502E004256B
:102EC00000E00825DFF8E4A24FF000094FF4004BC2
:102ED00090426ED135B1022D21D0042D51D0082D54
:102EE00068D16EE0FEF7F2FB4DE0012851D00228D8
:102EF00051D0032851D0042851D0052851D006289C
:102F000051D0072851D0082851D0092853D00A2879
:102F100053D00B2853D03AE0B1FBF0F06CE0606A7C
:102F2000A8B1012817D0022817D0032817D00428E9
:102F300017D0052817D0062817D0072817D008283B
:102F400017D0092817D00A2817D00B2817D001202E
:102F5000BAFBF0F050E00220FAE70420F8E7062080
:102F6000F6E70820F4E70A20F2E70C20F0E710204B
:102F7000EEE72020ECE74020EAE78020E8E7304653
:102F8000E6E7FEF7C3FB0146606A0028ADD10120E9
:102F9000C2E70220C0E70420BEE70620BCE7082005
:102FA000BAE70A20B8E70C20B6E71020B4E72020E3
:102FB000B2E732E142E04020AEE78020ACE73046A5
:102FC000AAE7606AA8B1012822D0022822D00328EB
:102FD00022D0042822D0052822D0062822D0072873
:102FE00022D0082822D0092822D00A2822D00B2853
:102FF00022D00120BBFBF0F0002820D06168884679
:1030000001EB4101814219D8B0EB083F16D817E017
:103010000220EFE70420EDE70620EBE70820E9E7D0
:103020000A20E7E70C20E5E71020E3E72020E1E7AE
:103030004020DFE78020DDE73046DBE7012710E2B4
:103040007DB3022D75D0042D74D0082DF6D1606AA1
:10305000A8B101286FD002286ED003286DD00428B3
:103060006CD005286BD006286AD0072869D00828BC
:1030700068D0092867D00A287ED00B2800D0012606
:1030800032464D46002358460021FDF721F909023A
:1030900041EA106102024FEA5800101869414246A5
:1030A0003EE0FFE7FEF712FB84464D4649469AE0B4
:1030B000012815D0022815D0032815D0042815D0D2
:1030C000052815D0062815D0072815D0082815D0B2
:1030D000092815D00A2815D00B2814D0012612E093
:1030E000022610E004260EE006260CE008260AE080
:1030F0000A2608E00C2606E0102604E0202602E05E
:10310000402600E08026324600236046FDF7E0F8C6
:103110000902626841EA1061030250081818694107
:103120000023FDF7D5F8224AA0F5407191426FD9EE
:1031300084E709E052E05BE05CE05DE05EE05FE0D8
:1031400060E061E062E064E0606AB8B1012831D01B
:10315000022831D0032831D0042831D0052831D0BD
:10316000062831D0072831D0082831D0092831D09D
:103170000A2831D00B2800E04DE000D0012632466D
:103180004D46002350467FE700800040F369FFCFA3
:10319000FFF4FF11003801400010024000440040DD
:1031A00000480040004C0040005000400024F40063
:1031B000FFFC0F000226E2E70426E0E70626DEE732
:1031C0000826DCE70A26DAE70C26D8E71026D6E739
:1031D0002026D4E74026D2E78026D0E7FEF796FAED
:1031E0004D4649468446606A00283FF477AF5FE762
:1031F000022645E7042643E7062641E708263FE77F
:103200000A263DE70C263BE7102639E7202637E75C
:1032100025E1402634E7802632E7E0694FF6EF7873
:1032200058456ED1092D83D2DFE805F006093C052B
:1032300080050505830001E7FEF748FA01E0FEF787
:1032400055FA0146606AA8B1012815D0022815D0A8
:10325000032815D0042815D0052815D0062815D028
:10326000072815D0082815D0092815D00A2815D008
:103270000B2814D0012612E0022610E004260EE0EE
:1032800006260CE008260AE00A2608E00C2606E0DE
:10329000102604E0202602E0402600E08026B1FB54
:1032A000F6F01AE0606AA8B101282BD002282BD0D2
:1032B00003282BD004282BD005282BD006282BD070
:1032C00007282BD008282BD009282BD00A282BD050
:1032D0000B2800D00126BAFBF6F04100606801EB34
:1032E0005001B1FBF0F080B2A0F110014145A2D82D
:1032F0004FF6F0710140C0F3420001432068C16005
:10330000AFE046E00226E6E70426E4E70626E2E729
:103310000826E0E70A26DEE70C26DCE71026DAE7D7
:103320002026D8E74026D6E78026D4E7FEF7EEF938
:1033300087E7606AA8B1012817D0022817D00328B0
:1033400017D0042817D0052817D0062817D007282B
:1033500017D0082817D0092817D00A2817D00B280B
:1033600000D00126BBFBF6F0B7E70226FAE70426F9
:10337000F8E70626F6E70826F4E70A26F2E70C2621
:10338000F0E71026EEE72026ECE74026EAE7802665
:10339000E8E7092DBFF4CCAEDFE805F006093C05EF
:1033A00083050505860049E6FEF790F901E0FEF782
:1033B0009DF90146606AA8B1012815D0022815D0F0
:1033C000032815D0042815D0052815D0062815D0B7
:1033D000072815D0082815D0092815D00A2815D097
:1033E0000B2814D0012612E0022610E004260EE07D
:1033F00006260CE008260AE00A2608E00C2606E06D
:10340000102604E0202602E0402600E08026B1FBE2
:10341000F6F11AE0606AA8B101282ED002282ED059
:1034200003282ED004282ED005282ED006282ED0F2
:1034300007282ED008282ED009282ED00A282ED0D2
:103440000B2800D00126BAFBF6F1606801EB5001B1
:10345000B1FBF0F080B2A0F110014145A3D8216882
:10346000C8600120A4F86A0024F8680F3846C4F840
:103470000490C4F8089000F047B80226E3E7042659
:10348000E1E70626DFE70826DDE70A26DBE70C266C
:10349000D9E71026D7E72026D5E74026D3E78026B0
:1034A000D1E7FEF733F984E7606AA8B1012817D0A5
:1034B000022817D0032817D0042817D0052817D0C2
:1034C000062817D0072817D0082817D0092817D0A2
:1034D0000A2817D00B2800D00126BBFBF6F1B4E771
:1034E0000226FAE70426F8E70626F6E70826F4E7B8
:1034F0000A26F2E70C26F0E71026EEE72026ECE796
:103500004026EAE78026E8E730BCBDE8C09F2DE909
:10351000F041984617460E460446069D1DE0681C7D
:103520001BD02DB1FDF744FBA0EB0800A84214D935
:103530002068016821F4D07101602068816821F061
:1035400001018160202084F87D0084F87E00002045
:1035500084F87C000320BDE8F0812068C06936EA69
:10356000000004D00020B842D9D00020F3E70120A9
:10357000F9E700002F4F0A252F4C4FF000080126D5
:103580004FF4FA793978481C38703B2937D187F8DD
:103590000080797840464A1C7A703B291BD17870AC
:1035A000BA78511CB970172A00D1B870B87862681F
:1035B000B0FBF5F105FB1101517661684E77B0FB68
:1035C000F5F105FB110131B9B0FBF5F06168C87781
:1035D000606880F8236078786268B0FBF5F105FBDD
:1035E0001101517361684E74B0FBF5F105FB1101D7
:1035F00029B9B0FBF5F06168C8746068C6753878A1
:103600006268B0FBF5F105FB1101517061684E7104
:10361000B0FBF5F105FB110129B9B0FBF5F06168CC
:10362000C8716068C672E16B03488847484601F07C
:1036300029FCA7E7080000208C000020FEE700001E
:103640000A46014601A000F013B800004572726FEF
:10365000722061742046696C653A20257320616E82
:1036600064204C696E653A2025640D0A0000000054
:103670000FB4054B10B503A9044A029800F046FFA9
:1036800010BC5DF814FB0000514C00087C000020C9
:1036900003B401984100009850EAC12018BF0420EB
:1036A0004A0D18BF40F0010040F2FF72B2EB515FCB
:1036B00008BF40F00200012808BF052002B0704793
:1036C0002DE9F04D2DED040B2DED0E8B96B0DDE9BF
:1036D0002550279CDDF890A025F0004624F00048F6
:1036E000BAF1000F14BF0121002101EB4502FC4992
:1036F00053184A1093422AD3002814BF01230023F1
:1037000003EB44030B44F7498B4220D358EA0001F2
:103710009FEDF59B76D0DFF8D8B35D4503D1BAF1C4
:10372000000F05D188E0BAF1000F08BF002100D0DA
:10373000012101EB450111F5001F08D8002814BF35
:103740000121002101EB440111F5001F0BD99DED72
:10375000261B9DED240B16B000F0DABD04B0BDE8C9
:10376000F04D00F081BE0027002DBCBFE149884527
:1037700021DAE1498845A8BF02271CDAC3451ADCD3
:10378000DE4901EB2851142908DDC1F1340220FA89
:1037900002F101FA02F282420DD108E058B9C1F1FA
:1037A000140228FA02F101FA02F2424503D101F0B3
:1037B0000101C1F1020756EA0A0124D1002C22DAE4
:1037C000002D18BF022F01D0012F0AD0022000F0D7
:1037D00097FE16B000F0A2BD04B0BDE8F04D00F0B9
:1037E0002BBE022000F08CFE00F026FE51EC100BE8
:1037F00081F0004141EC100B16B000F095BD04B013
:10380000BDE8F08D18E09FEDBEAB9FEDBF8B0028AB
:1038100071D1B848804522D105F1804010F5801063
:1038200008BFBAF1000F07D0B3450ADC002CA8BFCF
:103830009DED260BE0DA0DE0B0EE490AF0EE690AE4
:10384000DAE7002C06DA9DED260B51EC100B81F027
:1038500000416FE0AE48784490ED000BCCE7D845CE
:103860004DD1002C48DA2EB186423AD1BAF1000F80
:1038700042D126E0BAF1000F13D0022000F040FE42
:1038800000F00EFE8DED020B9DED240B8DED000B77
:1038900010EE900A039961F31E0003909DED020B58
:1038A000AAE78DED02AB9DED240B1AEE901A10EEF7
:1038B000900A8DED000B61F31E0003909DED020B4D
:1038C0009AE78DED028B9DED240B18EE901A10EE09
:1038D000900A8DED000B61F31E0003909DED020B2D
:1038E0008AE709DA9DED240B51EC190B53EC102BF0
:1038F000FCF71AFF1EE020E09DED240B7CE78642DA
:103900001BDAB4F1804F0DD0A4F10050B0F1FF509C
:1039100013D1002D11DB9DED240B51EC100B01F0A8
:10392000ACFF07E09DED240B53EC102B51EC100B7A
:1039300000F0C2BC41EC100B5EE79DED240B51EC96
:10394000100B01F0F4F8BAF1000FCDE90E0142D1ED
:103950009FED710B46B3A6F1E040B0F17F600CD053
:103960005E4538D1002D00DAA7B3022F0CBF01202D
:103970004FF0FF30FCF75EFFDCE7002D01DD002C8F
:103980000DDA002D01DD002C1FDB002D16DA002CD6
:1039900014DB012F08BF9FED620B3FF42DAFB0EE9B
:1039A0004A0AF0EE6A0A27E7022F18BF002D0CD052
:1039B000012F0AD1002DFFF61FAF06E0002DB8BF82
:1039C000002C08DA012F3FF417AFB0EE480AF0EEF2
:1039D000680A11E71BE0012000EBE57050EA0701DF
:1039E00015D0791EB0EE498AF0EE698A084308BF07
:1039F0009FED4D8B4E480025804570DD4D494E486A
:103A0000884514DDB0420DDB002C19DB2FE00120CE
:103A100000F076FD16B000F08DBC04B0BDE8F04DAE
:103A200000F02EBDB34502DC002C09DC1FE086420D
:103A300002DA002C1BDA03E05E452BDD002C16DDDC
:103A4000022000F05DFD00F02BFD8DED020B53EC2C
:103A50001A2B51EC180BFCF7F2FDCDE9000103998C
:103A6000019861F31E0003909DED020BC4E6022055
:103A700000F046FD00F024FD10EE901A18EE900ABA
:103A80008DED020B8DED008B61F31E0003909DED1B
:103A9000020BB1E69DED0E0B53EC192B51EC100B04
:103AA000FCF7BFFD9FED260BCDE9080153EC102B71
:103AB0009DED080B51EC100BFCF7C1FD9FED221B97
:103AC00053EC112BFCF7B0FD9DED081B53EC112BB3
:103AD000FCF7B5FD9FED1E1B53EC112B3CE08CE079
:103AE000FFFF1F00FFFF0F00000000000000F03F7D
:103AF0000000F03F0000F07F0000404301FCFFFFAA
:103B0000000000000000F07F000000000000000046
:103B10009E33000000000000000000000000008054
:103B2000000000000000F0FF000000000000F0BFF7
:103B30000000E0410000F043FFFFEF3F0000000005
:103B4000000000000000D03F555555555555D53F54
:103B5000000000000000E03FFCF766FD9DED080B53
:103B600041EC1A0B53EC102B51EC100BFCF767FDDA
:103B700053EC1A2BFCF763FD41EC1A0B9FEDFE0B87
:103B800053EC102B9DED080B51EC100BFCF757FD7F
:103B900041EC1B0B9FEDFA0B51EC1A0B53EC102B65
:103BA000FCF74DFD41EC1A0B9FEDF70B53EC102B7E
:103BB0009DED080B51EC100BFCF741FD53EC1A2B5B
:103BC000FCF72FFD41EC1A0B51EC1B0B53EC1A2B9D
:103BD000FCF786FC0690CDE906519DED060B53ECF3
:103BE0001B2B51EC100BFCF71CFD53EC1A2BFCF7B4
:103BF0001BFD41EC100B00F0A1B90020B6F5801FB1
:103C00000EDA9FEDE30B53EC102B9DED0E0B51ECF8
:103C1000100BFCF714FDCDE90E016FF034000E46D9
:103C200000EB2650A0F2FF37C6F31300DA4940F04C
:103C30007F6646F040568842D8BF002408DDD74949
:103C40008142C8BF012403DC0024A6F580167F1C36
:103C5000D348784400EBC4000F9690ED00CB9DED67
:103C60000E0B53EC1C2B51EC100BFCF7DAFC9DED0A
:103C70000E0B41EC1B0B53EC1C2B51EC100BFCF707
:103C80002FFC41EC100B51EC190B53EC102BFCF7F3
:103C90004BFD41EC1D0B51EC1B0B53EC1D2BFCF7AA
:103CA000CEFC41EC1A0BBF488DED10AB784410955B
:103CB00090ED000B4FF0005040EA660000EB8440AE
:103CC0008DED080B00F5002009909DED080B53ECDD
:103CD0001C2B51EC100BFCF7A4FC9DED0E1B53ECC0
:103CE000112BFCF7A1FC41EC100B53EC102B9DEDBC
:103CF000100B51EC100BFCF7A2FC9DED080B41ECF6
:103D00001C0B53EC102B9DED100B51EC100BFCF722
:103D100096FC53EC1B2BFCF787FC53EC1C2BFCF79D
:103D200080FC53EC1D2BFCF78AFC41EC1C0B53EC84
:103D30001A2B51EC1A0BFCF782FC41EC1B0B9A4836
:103D40000621B0EE4B0AF0EE6B0A784400F0F8FA68
:103D5000B0EE401AF0EE601AB0EE41DAF0EE61DA41
:103D600053EC1B2B51EC1B0BFCF769FC53EC1D2B8C
:103D7000FCF765FC9DED100B41EC1B0B53EC1A2B73
:103D800051EC100BFCF7ACFB53EC1C2BFCF757FC75
:103D900053EC1B2BFCF7A4FB9DED100B41EC1B0B14
:103DA00053EC102B51EC100BFCF749FC41EC1D0BB4
:103DB0009FED7FEB53EC1E2BFCF792FB53EC1B2B80
:103DC000FCF78EFB0890CDE908519DED080B53ECF4
:103DD0001E2B51EC100BFCF724FC53EC1D2BFCF7B5
:103DE00020FC53EC1B2BFCF71FFC9DED080B41EC5A
:103DF0001D0B53EC102B9DED100B51EC100BFCF731
:103E00001EFC41EC1B0B53EC1A2B51EC1D0BFCF769
:103E100016FC9DED080B41EC1A0B53EC102B51ECEA
:103E20001C0BFCF70CFC53EC1A2BFCF759FB41EC78
:103E30001A0B51EC1B0B53EC1A2BFCF751FB0C909B
:103E4000CDE90C519DED0C0B53EC1B2B51EC100BE1
:103E5000FCF7E7FB53EC1A2BFCF7E6FB41EC1B0BE2
:103E60009FED550B53EC102B9DED0C0B51EC100BF3
:103E7000FCF7E5FB41EC1A0B9FED510B51EC1B0BD2
:103E800053EC102BFCF7DBFB41EC1B0B9FED4E0BB7
:103E900053EC102B9DED0C0B51EC100BFCF7CFFBF2
:103EA00053EC1B2BFCF71CFB41EC100B48487844EF
:103EB00000EBC40090ED001B51EC100B53EC112BE8
:103EC000FCF70EFB41EC1B0B3846FCF7B3FCCDE9CD
:103ED000080153EC1B2B51EC1A0BFCF701FB41ECD6
:103EE000100B3C48784400EBC40090ED00CB51EC43
:103EF000100B53EC1C2BFCF7F3FA9DED081B53EC55
:103F0000112BFCF7EDFA0690CDE906519DED080B5B
:103F100053EC102B9DED060B51EC100BFCF781FBC5
:103F200053EC1C2BFCF77DFB53EC1A2BFCF779FBB5
:103F300053EC1B2BFCF778FB41EC100B9DED261B83
:103F400053EC102B8DED001B00959DED260B51ECD5
:103F5000100BFCF774FB9DED000B41EC1A0B53ECBE
:103F6000102B9DED260B51EC100BFCF75AFB9DED31
:103F7000061B53EC112B2FE0000000604715F73FA4
:103F8000FE822B654715F73F44DF5DF80BAE543ECC
:103F900000000000000040438E9803007AB60B003A
:103FA0001A2F0000482F0000522E000000000000D1
:103FB0000000000000000840000000E009C7EE3FDC
:103FC000FD033ADC09C7EE3FF5015B14E02F3EBE6E
:103FD000DE2C0000982C0000FCF731FB53EC1A2B70
:103FE000FCF77EFA9DED060B41EC1A0B53EC102BFF
:103FF0009DED000B51EC100BFCF721FBCDE90C0102
:104000009DED0C0B51EC1A0B53EC102BFCF768FADE
:10401000CDE902010C46AA498C422FDB611A084304
:1040200018D19DED0C0B53EC102B9DED020B51ECB8
:10403000100BFCF7F6FA41EC1B0B9FEDA30B51ECB8
:104040001A0B53EC102BFCF74BFA53EC1B2BFCF721
:1040500003FC2DD2022000F053FA00F021FA10EEFA
:10406000901A18EE900A8DED020B8DED008B61F326
:104070001E0003909DED020BFFF7BEBB944A24F097
:104080000041914214D39349214408437FF4EFAC9B
:104090009DED0C0B53EC102B9DED020B51EC100B16
:1040A000FCF7BFFA53EC1A2BFCF7D6FB7FF6DFAC1C
:1040B00024F000408849894A002601EB20518242C1
:1040C0002BDA481C4FF4801121FA00F02044844A76
:1040D000C0F30A517A44A1F2FF3192ED000B814AFC
:1040E0008DED080BCA4020EA0202C0F3130040F431
:1040F0008010C1F1140120FA01F60992002CB8BF1A
:1041000076429DED080B53EC102B9DED0C0B51EC02
:10411000100BFCF786FACDE90C019DED0C0B51EC70
:104120001A0B53EC102BFCF7DBF99FED6F0B08908B
:10413000CDE9085153EC102B9DED080B51EC100B01
:10414000FCF77DFA41EC1B0B9FED690B53EC102B38
:104150009DED080B51EC100BFCF771FA9DED0C0B6B
:1041600041EC1C0B53EC102B9DED080B51EC100B8C
:10417000FCF757FA53EC1A2BFCF756FA9FED5E1B2F
:1041800053EC112BFCF75BFA53EC1C2BFCF7A8F952
:1041900041EC1A0B51EC1B0B53EC1A2BFCF7A0F95A
:1041A000CDE902019DED020B53EC1B2B51EC100BE2
:1041B000FCF737FA53EC1A2BFCF736FA9DED020B9D
:1041C00041EC1A0B53EC102B51EC100BFCF737FAA7
:1041D000CDE908014A489DED080B0521784400F01F
:1041E000AFF89DED081B51EC100B53EC112BFCF7B5
:1041F00026FA9DED021B53EC112BFCF715FACDE9C5
:1042000006019DED020B53EC1A2B51EC100BFCF741
:1042100016FA53EC1A2BFCF763F99FED3B0B41ECBC
:104220001A0B53EC102B9DED060B51EC100BFCF709
:10423000F8F99DED060B41EC1B0B53EC102B9DED9B
:10424000020B51EC100BFCF7FAF953EC1B2BFCF7AB
:104250006BFA53EC1A2BFCF7E4F99DED021B53ECBF
:10426000112BFCF7DEF953EC192BFCF7DDF9CDE946
:10427000020101EB065001150029C8BF039015DCAF
:104280009DED020B324651EC100BFCF7BCFAFFF728
:10429000FFF9042808BF00F013F932469DED020B28
:1042A00051EC100BFCF7AFFACDE902019DED020BCA
:1042B00051EC180B53EC102BFCF7C1F9FFF73ABB8C
:1042C0000000904000000000FE822B654715973CDF
:1042D00000CC904000346F3F01FCFFFF0000E03F46
:1042E000202B0000FFFF0F0000000000432EE63FE0
:1042F000396CA80C615C20BEEF39FAFE422EE63F15
:10430000F029000000000000000000000000004054
:10431000BDEC088BBDEC06CBFFF720BABDEC088BDB
:10432000BDEC06CBFFF758BABDEC088BBDEC06CB55
:10433000FFF765BABDEC088BBDEC06CBFFF76DBB94
:1043400070B504462DED028B4D1E00EBC500B0EE9E
:10435000408AF0EE608A90ED000B35F0060017D031
:1043600053EC182B51EC100BFCF769F941EC100BD6
:104370006D1E04EBC50090ED001B51EC100B53ECCF
:10438000112BFCF7ADF841EC100B35F00600E7D12E
:10439000022D36D0042D1CD0062D1CBFBDEC028B87
:1043A00070BD53EC182B51EC100BFCF748F994ED51
:1043B0000A1B53EC112BFCF793F853EC182BFCF76A
:1043C0003EF994ED081B53EC112BFCF789F841ECF6
:1043D000100B53EC182B51EC100BFCF730F994ED4B
:1043E000061B53EC112BFCF77BF853EC182BFCF756
:1043F00026F994ED040B53EC102BFCF771F841EC0B
:10440000100B53EC182B51EC100BFCF718F994ED32
:10441000021B53EC112BFCF763F853EC182BFCF741
:104420000EF994ED001B53EC112BFCF759F8BDEC81
:10443000028B41EC100B70BD9FED070B10B553ECD8
:10444000102B9FED070B51EC100BFCF76DF941ECB5
:10445000100B10BD00000000000000000000000074
:10446000000000000000F03F10B553EC112B51ECA0
:10447000100BFCF735F841EC100B10BD00000000EC
:104480009FED050B10B553EC102B51EC100BFCF706
:104490004BF941EC100B10BD0000000000000000C3
:1044A0009FED050B10B553EC102B51EC100BFCF7E6
:1044B000C6F841EC100B10BD0000000000000070B9
:1044C0009FED050B10B553EC102B51EC100BFCF7C6
:1044D000B6F841EC100B10BD000000000000001009
:1044E00002E008C8121F08C1002AFAD170477047BD
:1044F000002001E001C1121F002AFBD1704700001B
:104500000149086070470000880000202DE9FF4F36
:104510008DB00F460546002606E025280BD0DDE9C4
:104520000F1290476D1C761C28780028F5D111B029
:10453000304600F0F3B90024A246A1460122EC491E
:1045400000E0044315F8013F203B02FA03F0084263
:10455000F7D128782A2810D06FF02F022878A0F100
:104560003001092914D80AEB8A0102EB410144F019
:10457000020400EB010A6D1CF0E701CF5FEA000ABC
:1045800003D544F40054CAF1000A44F002046D1C3F
:1045900028782E2817D115F8010F44F004042A2892
:1045A0000ED06FF02F022878A0F1300109290AD827
:1045B00009EB890102EB410100EB01096D1CF2E7F7
:1045C00057F8049B6D1C28786C280FD006DC4C280B
:1045D00017D068280DD06A2814D104E0742810D0B0
:1045E0007A280FD10DE044F400140AE044F480145A
:1045F00001E044F440146978814202D104F580144A
:104600006D1C6D1C2A786E2A1FD00CDC632A31D0F9
:1046100004DC002A8BD0582A11D1A3E0642A68D088
:10462000692A0CD165E0732A2ED004DC6F2A73D07E
:10463000702A04D19BE0752A6FD0782A6ED010467C
:10464000DDE90F129047761C50E1C4F302500228B6
:1046500006D0032809D0042801CF09D0066045E11F
:1046600001CFF117C0E9006140E101CF06803DE1D3
:1046700006703BE117F8040B8DF8000000208DF860
:104680000100EB46012003E057F804BB4FF0FF3078
:1046900061074FF0000102D40DE008F101018846E6
:1046A00049450FDA8045F8DB1BF808100029F4D1E2
:1046B00008E008F1010188468142FADB1BF8081086
:1046C0000029F6D1DDE90F23AAEB08008146214637
:1046D00000F039F9304400EB080604E0DDE90F1280
:1046E0001BF8010B9047B8F10108F7D22146484664
:1046F000F7E00A21C4F302534FF0000B0891022B9C
:1047000004D001CFC117032B09D00AE0FF1D27F009
:104710000707F7E8020108E032E01FE020E000B2FE
:10472000C117042B01D140B2C117031E71F1000360
:1047300007DA4FF0000CD0EB0C006CEB01012D23DD
:1047400002E0230504D52B238DF82430012303E058
:10475000E30701D02023F7E7984658E00A2110E04C
:1047600010210EE010204FF0000B08900CE01021FB
:104770004FF0000B44F004044FF00809089103E0E7
:1047800008214FF0000B0891C4F30253022B04D010
:1047900001CF0021032B06D006E0FF1D27F00707FD
:1047A000F7E8020103E080B2042B00D1C0B24FF061
:1047B000000823072BD5702A07D0DDF820C08CF025
:1047C000100C5CEA0B0C05D00EE040238DF8243071
:1047D000012308E050EA010306D030238DF824308D
:1047E0008DF8252002239846DDF820C08CF0080CB7
:1047F0005CEA0B0C0BD150EA010301D1630706D52B
:1048000030238DF824304FF00108A9F10109582A0E
:1048100004D038A20B9208AA0A920BE03AA2F9E758
:104820005B46089AFBF754FD0B9B9B5C0A9A521E51
:104830000A92137050EA0102F2D10A98ADEB00001F
:1048400000F1200B600702D524F4803401E04FF022
:104850000109D94502DDA9EB0B0000E0002000EBC7
:104860000B0141440890AAEB010AE00306D4DDE9FC
:104870000F232146504600F066F806444FF0000929
:1048800008E009A911F80900DDE90F12904709F1C4
:104890000109761CC145F4DBE0030CD5DDE90F23EB
:1048A0002146504600F04FF8064404E0DDE90F12BF
:1048B00030209047761C0899481E08900029F5DCA6
:1048C00008E00A980A990078491C0A91DDE90F125C
:1048D0009047761CBBF10001ABF1010BF1DC2146E6
:1048E0005046DDE90F2300F01CF806446D1C1BE662
:1048F00009280100303132333435363738396162B6
:104900006364656600000000303132333435363779
:1049100038394142434445460000000030BCBDE800
:10492000C08F2DE9F041044600251E461746880435
:1049300004D405E039462020B0476D1C641EF9D52B
:104940002846BDE8F0812DE9F041044600251E46C9
:104950009046C80301D5302700E02027880404D5FD
:1049600005E041463846B0476D1C641EF9D528461F
:10497000BDE8F0813EB5044615A00068009060785F
:1049800000F00F018DF80410102141EA10108DF88D
:104990000800A2680221684690472078B02101EB08
:1049A000D0008DF800000121684601F073F9012163
:1049B00001A801F06FF9012102A801F06BF90020B4
:1049C0008DF80000E2680121684690473EBD000076
:1049D0002002000010B5052935D2DFE801F0030CF4
:1049E000151E27000121BD20FBF7CAFC00282AD193
:1049F00040F2071122E001218520FBF7C1FC0028CD
:104A000021D14FF4867119E001213120FBF7B8FC68
:104A1000002818D140F2111110E001215A20FBF7B3
:104A2000AFFC00280FD14FF48B7107E00121372034
:104A3000FBF7A6FC002806D140F21B11BDE8104090
:104A400001A0FEF7FDBD10BD2E2E5C5372635C739A
:104A50007364313330362E63000000002DE9F84FC7
:104A60009B46DDF828A017460C46436A0546524689
:104A7000594698472049062202EBC4020868835C25
:104A8000052202EBC406825D03EBD20212FB07F2A1
:104A9000042707EBC40750F83430C05D002400FB46
:104AA000023889461CE0D0B2B4FBF0F100FB1140A3
:104AB00048B944B10AF10800C0B2824602466B6AA6
:104AC00059462846984718F804108DF800100BA096
:104AD000FEF7CEFDEA68012168469047641CE4B207
:104AE000D9F80000815DC25DC90812FB01F1A14245
:104AF000D9D800F007B80000000000203078253039
:104B00003278200018BCBDE8E08F08B5AE218DF8E2
:104B10000010826801216846904708BD08B5AF21A2
:104B20008DF80010826801216846904708BD82B068
:104B3000CDE9000121F0004001909DED000B02B095
:104B400051EC100B7047000070B504462821052079
:104B5000FBF716FC206018B9AB2123A0FEF770FD0F
:104B60002168254810228861216812200877206872
:104B700042772168012088772368204919602368DB
:104B80001B211971236818215971236898712568B0
:104B90001B4BAB60256813232B7323685973236861
:104BA00098732568174B2B6225680B2385F82430F2
:104BB000236883F82520226882F826000E4A23689D
:104BC000153A1A61236807221A75226851752168FF
:104BD00088750C490CA0FEF74BFD2068016ABDE802
:104BE000704010A0FEF744BD2E2E5C5372635C66CD
:104BF0006F6E742E63000000AA670008F95F00085A
:104C00009D640008C669000861646472657373205E
:104C10006F6620666F6E745F31387831363A2025C2
:104C2000640D0A0061646472657373206F6620709E
:104C30005F666F6E7420706F696E7420746F20668B
:104C40006F6E745F31387831363A2025640D0A0072
:104C500013B54FF6FF73012269460248FDF72FFA9C
:104C600000981CBD9C03002010B5002821D0114BDA
:104C70000022001F196803E0814203D80A464968F0
:104C80000029F9D152B11368841A9C4204D10068FA
:104C900018441060104602E0506000E0186039B11E
:104CA00002680B1A934203D10B681A4402604968E8
:104CB000416010BD800000208CB0FCF71FF9FDF7AB
:104CC00009FE4B4CE06C40F04000E064E06C00F00A
:104CD00040000090FCF70CFAE06C40F00200E06449
:104CE000E06C444C00F0020000900022802120463D
:104CF000FBF759FF8020069001200021CDE9070134
:104D0000099106A92046FBF76FFEFDF7B7FBFDF7FB
:104D1000EDFB002205214620FCF75CF94620FCF75C
:104D20004DF935480068016841F0200101603348C1
:104D3000FFF70AFF324800F0D7FD324C0A26304D0B
:104D4000A0781827B0FBF6F200970323D5F82CC003
:104D500001212846E047A0780097B0FBF6F106FB5A
:104D600011021923D5F82CC001212846E0470097ED
:104D70002F230022D5F82CC002212846E047607876
:104D80000097B0FBF6F23923D5F82CC00121284654
:104D9000E04760780097B0FBF6F106FB11024F2365
:104DA000EF6A01212846B84720782027B0FBF6F2A9
:104DB00000976523D5F82CC004212846E0472078C9
:104DC0000097B0FBF6F106FB1102ED6A7323042194
:104DD0000B48A84714220C4901A8FBF7ADFA0021A3
:104DE00001A800F065F8606000F053F8FEE70000ED
:104DF00000100240000400489C0300200000002036
:104E00008C00002008000020106B000801460020E4
:104E1000842900D0C81C7047F0B50B30154D20F028
:104E200007010024144A0FE003688B420BD38B4226
:104E300005D95E1A43184768C3E9006700E0436874
:104E4000136002C004E0021D10680028ECD1204667
:104E5000002802D1286808B10020F0BD064A0748A2
:104E60001060074A121A22F00702C0E9002401204C
:104E70002860D7E78400002080000020642D0020F7
:104E8000602D042010B500B9012000F073FE002051
:104E900010BD10B500F094FE002010BD10B500F05C
:104EA000C9FF012803D0BDE8104000F07FBF10BD4E
:104EB0003EB504460D46B0F90800FFF7A7FF02A96A
:104EC000CDE90001208A2B4682B2D4E9001000F01F
:104ED00083FF012801D000203EBD02983EBD0000A6
:104EE0002DE9FC410022436A0646114698470DA071
:104EF000022100680090B2686846904700252F465E
:104F00005FF000048DF80470F268012101A8904759
:104F1000641CE4B2802CF5D30835EDB2402DEFD3FC
:104F2000BDE8FC81200000002DE9F041184C0F463F
:104F30000546E6682068001D00F066FD38B9206867
:104F400090F82C1001208840216981432161681C60
:104F500007D137B12168BDE8F0410E48091D00F0C6
:104F60008BBD20683544B5424560216805D2A06BF1
:104F7000BDE8F041091D00F067BD606B091D00F040
:104F800063FDA06A854200D2A562BDE8F081000001
:104F900040000020482D00202DE9F041054600F09A
:104FA00077FD2D4CA068401CA06020682B4F10B1ED
:104FB000606938B32CE02560A068012828D100265C
:104FC00006EB860007EB800000F030FD761C0A2E11
:104FD000F6D32248C83000F029FD2048DC3000F02C
:104FE00025FD1E48F03000F021FD1D4800F01EFD9B
:104FF0001B48143000F01AFD19483C386063143027
:10500000A06305E02068E96AC06A884200D825608C
:10501000606A401C6062E96A01202269884010438E
:10502000206101EB810007EB8000291D00F024FDC9
:1050300000F04EFD606900280CD02068E96AC06A63
:10504000884207D207494FF080500860BFF34F8F66
:10505000BFF36F8FBDE8F08140000020302C0020AE
:10506000342D002004ED00E070B5114E114C17E016
:1050700000F0DAFD3068B8B100F04EFF00F008FD36
:10508000F068C568281D00F0BFFCA068401EA06045
:105090006068401E606000F01BFD284600F00CF8C0
:1050A00060680028E4D170BD00F036FFF8E700002A
:1050B000342D00204000002010B50446006B00F0A5
:1050C0001BFD2046BDE8104000F016BD0F4842F21F
:1050D0001071420705D0C01D0C4A20F00700821A4B
:1050E000891A0B4A00230144C2E900030839103A27
:1050F00021F0070111604B600B600B1AC0E900132F
:1051000093604FF000405360D0607047200500204E
:105110002C000020074C4FF08056074DFFF7A4FFEE
:1051200020680128FAD92E60BFF34F8FBFF36F8F2D
:10513000F4E70000302C002004ED00E02DE9F047FA
:105140009A46DDE9098481466FF00303206B03EB87
:1051500082021044089D20F00706700707D05020F7
:1051600080F31188BFF34F8FBFF36F8FFEE72318D3
:105170000A5C83F834200A5C12B1401C1028F6D374
:10518000002784F843700A2D00D30925E562C4E99D
:105190001157201D00F055FC04F1180000F051FCDF
:1051A0002461C5F10A006462A061E76484F850706C
:1051B00052464946304600F0BFF82060B8F1000F73
:1051C00001D0C8F80040BDE8F087000030B51149B3
:1051D00000E011460A688242FBD34B685C188442A7
:1051E00003D1406818444860084643681C1894423C
:1051F00009D1084C103C2468A24209D052681A44D4
:1052000042600A6812680260814200D0086030BDC6
:105210000460F9E72C0000200648416B096829B1B9
:10522000416BC968C9684968816270474FF0FF31B6
:10523000FAE700004000002008484068401C4FF09A
:10524000500080F3118804D0BFF34F8FBFF36F8FEE
:10525000FEE7BFF34F8FBFF36F8FFEE734000020F0
:105260002DE9F0410546002700F0DEFC314E3068A4
:1052700008B9FFF72BFFF06805424BD1C5B30835DD
:1052800068070ED005F00700C0F108000544680764
:1052900007D0502080F31188BFF34F8FBFF36F8F7B
:1052A000FEE72DB37068854234D82248103001469D
:1052B0000C6801E020460C466168A94202D22168D0
:1052C0000029F7D131688C4224D007682168016039
:1052D00060680837411B10290FD96019420708D0B0
:1052E000502080F31188BFF34F8FBFF36F8FFEE71D
:1052F00010E041606560FFF769FF61687068401AFF
:105300007060B268904200D2B060F0680143002043
:10531000C4E9000100F000FE780707D0502080F3B8
:105320001188BFF34F8FBFF36F8FFEE73846BDE89C
:10533000F08100001C00002010B5031F4FF08074A6
:105340001C601B1F21F001011960191F044B0B6029
:1053500014390A60091F6FF0020244380A6010BD58
:1053600039520008F0B54D080126AE40761E0446BD
:1053700001290CD024FA05F02946FFF7F3FF074670
:1053800004EA06002946FFF7EDFFA8403843F0BDC8
:105390002DE9FE4304465EA0022100680290A26847
:1053A00002A89047606800264179012906D1427819
:1053B0000178236B57489847606806716068C17A26
:1053C000012907D1C27981795248236B3730984738
:1053D000606886726068417C012907D1427B017B4D
:1053E0004C48236B6E309847606806746068C17DD6
:1053F000012907D1C27C817C4648236BF330984752
:10540000606886756068417F012906D1427E017E11
:10541000236B4148984760680677606890F82310CE
:10542000012908D1C27F817F3B48236B8530984793
:10543000606880F8226005275FF0000505EB4502F3
:10544000606807EB420C10F80C10012902D041797A
:10545000F1B353E0042101EB420810F808104B1C93
:1054600000F808306068DFF8B48010F81230D8F81F
:105470000080994607EBC30318F8033008339942BC
:105480002DD2062D13D2DFE805F00305080B0E1010
:1054900020490CE01F49373109E01E496E3106E012
:1054A0001D49853903E01C4901E01B49853103236F
:1054B00003EB42034FF0020C0CEB420CC35C10F800
:1054C0000CC0CDE900C3012303EB4202835C00E082
:1054D00008E0D4F838C04A462046E0470EE000F81D
:1054E0000C600BE0C17A49B9417C39B9C17D29B959
:1054F000417F19B990F82300002807D06D1CEDB248
:10550000062D9BD30F20FFF7BDFC95E700F008B8F0
:1055100020020000CC0000204402002000000020F7
:1055200006BCBDE8F88300002DE9F04F89B00546C0
:10553000DDE9129080468B4609F00F008DF81400CB
:10554000102141EA19108DF81800B02101EBD800A4
:1055500014468DF81C00AA68012107A89047AA6884
:10556000012105A89047AA68012106A89047DFF805
:1055700084A0062101EBC401DAF80000425C052199
:1055800001EBC406815DC90802EB4101042202EB74
:10559000C407C9B2C25D584600F035F900241CE0CA
:1055A000C05DB4FBF0F100FB114048B944B108F113
:1055B0000800C0B2804602466B6A494628469847B2
:1055C0001BF804000821FFF7CDFE8DF80000EA6803
:1055D000012168469047641CE4B2DAF80000825D5D
:1055E000C15DD20811FB02F1A142D9D809B000F087
:1055F00003B800000000002030BCBDE8C08F0000F0
:105600002DE9F0470C46002101608146DFF8BCA07F
:105610000620052100EBC4050423DAF8000003EBA3
:10562000C40701EBC406CAB110F806C010F8058023
:105630004FEADC0108EB4103C15D13FB01F308EB0A
:10564000DC0C521E1CFB02F250F8340001FB02017C
:105650001A464846FAF770FE002428E0415D825D54
:1056600001EBD203C15D13FB01F250F8340003EBF0
:10567000C30311FB03014846FAF75EFEDAF8001097
:105680008B5DC85DDA0812FB00F211F805C00CEB67
:10569000D30C1CFB009051F83410DBE719F8040020
:1056A0000821FFF75FFE09F80400641CA4B2DAF8D1
:1056B0000000825D415DD208C05D01EB420111FB3B
:1056C00000F0A042EAD8BDE8F0870000000000200A
:1056D00008B505A109680091C1788DF801108268AC
:1056E00002216846904708BD810000003EB504468F
:1056F0001CA015460068009001F00F008DF8040012
:10570000102040EA11108DF80800A26802216846B6
:105710009047B02000EBD5008DF80000A268012171
:1057200068469047A268012101A89047A26801211C
:1057300002A8904705F007008DF80000FAF72EFE4A
:1057400041EC110B9FED080BFDF7BAFF51EC100B6C
:10575000FAF731FE8DF80000E268012168469047B3
:105760003EBD0000200200000000000000000040DC
:105770003EB5044611A015460068009001F00F00E8
:105780008DF80400102040EA11108DF80800A2687E
:10579000022168469047B02000EBD5008DF800004C
:1057A000A268012168469047A268012101A890479C
:1057B000A268012102A890473EBD0000200200001F
:1057C00070B502780023120600D5012300224D1E79
:1057D0000EE0845C6406240E8454AA4206DA86181D
:1057E0007678360602D544F001048454521CD2B2B5
:1057F0008A42EED3002B05D0084410F8011D41F079
:105800000101017070BD2DE9F04115460E460746B5
:10581000002407E02B4632462146384600F006F8C1
:10582000641CE4B2AC42F5D3BDE8F0812DE9F0414F
:1058300046181F46144601211046FAF7A1FD0546F9
:10584000002005E010FB07F1715C2954401CC0B238
:10585000A042F7D321462846FFF7B2FF002005E01B
:10586000295C10FB07F2401CB154C0B2A042F7D330
:105870002846BDE8F041FFF7F7B900B52DED048BE0
:1058800083B041EC190BFBF723F841EC180B18EE31
:10589000100A18EE901A8DED008B002818BF012019
:1058A000084320F00040C0F17F6000F1E040C00FED
:1058B00014D019EE101A19EE900A8DED009B0029F4
:1058C00018BF0121084320F00040C0F17F6000F1C3
:1058D000E040C00F04BF0120FEF712FE51EC180B90
:1058E00003B0BDEC048B00BD30B50446062189B081
:1058F0000846FAF745FD0421606001706068817117
:10590000616801200873616888746168087661685D
:10591000887700200246052100EB4005636801EB13
:105920004505401CC0B25A550628F5D3616873205E
:10593000887061682020C870626865211172616892
:10594000487261684F20887361681820C873626864
:10595000392111756168487562681921917661680D
:10596000C8766268032182F820106168202281F8DD
:1059700021001648A0601648E0601648E06116480D
:105980002062164820611648A062164860621648D8
:10599000A061164860611648E06216482063164808
:1059A00060631648A0631648E06316496846FAF734
:1059B000C3FC6D4600242819012100F06BF9641C1A
:1059C000E4B21D2CF7D309B030BD0000955C00088F
:1059D000B15C0008ED56000875490008D156000872
:1059E000E14E0008715700081D4B00080B4B0008E2
:1059F0005D4A000801560008D549000829550008ED
:105A000091530008DC5F0008D0E9013201699A6017
:105A1000D0E901235A604A68824201D182684A6013
:105A2000002202610868401E0860704700F108010A
:105A30004FF0FF32C0E90112C16001610021016035
:105A4000704700210161704730B50B685A1C02D0C5
:105A500000F1080202E0026904E022465468256869
:105A60009D42FAD953684B6099608A605160086121
:105A70000168491C016030BD42684A6093688B60D0
:105A800093685960916008610168491C0160704722
:105A9000502080F31188BFF34F8FBFF36F8F0A49F7
:105AA0004868401C486001280CD10848006810F084
:105AB000FF0F07D0502080F31188BFF34F8FBFF343
:105AC0006F8FFEE7704700003400002004ED00E017
:105AD0000849486828B1401E486001D180F3118808
